{
  "_format": "hh-sol-artifact-1",
  "contractName": "VotingPortal",
  "sourceName": "contracts/VotingPortal.sol",
  "abi": [
    {
      "inputs": [],
      "stateMutability": "nonpayable",
      "type": "constructor"
    },
    {
      "inputs": [],
      "name": "getVotingOne",
      "outputs": [
        {
          "internalType": "uint256",
          "name": "",
          "type": "uint256"
        }
      ],
      "stateMutability": "view",
      "type": "function"
    },
    {
      "inputs": [],
      "name": "getVotingTwo",
      "outputs": [
        {
          "internalType": "uint256",
          "name": "",
          "type": "uint256"
        }
      ],
      "stateMutability": "view",
      "type": "function"
    },
    {
      "inputs": [],
      "name": "setVotingOne",
      "outputs": [],
      "stateMutability": "nonpayable",
      "type": "function"
    },
    {
      "inputs": [],
      "name": "setVotingTwo",
      "outputs": [],
      "stateMutability": "nonpayable",
      "type": "function"
    }
  ],
  "bytecode": "0x608060405234801561001057600080fd5b506100596040518060400160405280601781526020017f576f6f6f6875757521212049276d206120736d6172742000000000000000000081525061005e60201b6100fa1760201c565b6101e1565b6100fa81604051602401610072919061015f565b6040516020818303038152906040527f41304fac000000000000000000000000000000000000000000000000000000007bffffffffffffffffffffffffffffffffffffffffffffffffffffffff19166020820180517bffffffffffffffffffffffffffffffffffffffffffffffffffffffff83818316178352505050506100fd60201b60201c565b50565b60008151905060006a636f6e736f6c652e6c6f679050602083016000808483855afa5050505050565b600061013182610181565b61013b818561018c565b935061014b81856020860161019d565b610154816101d0565b840191505092915050565b600060208201905081810360008301526101798184610126565b905092915050565b600081519050919050565b600082825260208201905092915050565b60005b838110156101bb5780820151818401526020810190506101a0565b838111156101ca576000848401525b50505050565b6000601f19601f8301169050919050565b6104b9806101f06000396000f3fe608060405234801561001057600080fd5b506004361061004c5760003560e01c806351a13632146100515780638e0a71631461006f5780639e3c2c9814610079578063f4e831b314610097575b600080fd5b6100596100a1565b6040516100669190610350565b60405180910390f35b6100776100aa565b005b6100816100cd565b60405161008e9190610350565b60405180910390f35b61009f6100d7565b005b60008054905090565b6100b2610193565b60016000808282546100c49190610387565b92505081905550565b6000600154905090565b6100df610193565b60018060008282546100f19190610387565b92505081905550565b6101908160405160240161010e919061030e565b6040516020818303038152906040527f41304fac000000000000000000000000000000000000000000000000000000007bffffffffffffffffffffffffffffffffffffffffffffffffffffffff19166020820180517bffffffffffffffffffffffffffffffffffffffffffffffffffffffff838183161783525050505061027a565b50565b600460003373ffffffffffffffffffffffffffffffffffffffff1673ffffffffffffffffffffffffffffffffffffffff16815260200190815260200160002060009054906101000a900460ff1615610220576040517f08c379a000000000000000000000000000000000000000000000000000000000815260040161021790610330565b60405180910390fd5b6001600460003373ffffffffffffffffffffffffffffffffffffffff1673ffffffffffffffffffffffffffffffffffffffff16815260200190815260200160002060006101000a81548160ff021916908315150217905550565b60008151905060006a636f6e736f6c652e6c6f679050602083016000808483855afa5050505050565b60006102ae8261036b565b6102b88185610376565b93506102c88185602086016103e7565b6102d181610449565b840191505092915050565b60006102e9601283610376565b91506102f48261045a565b602082019050919050565b610308816103dd565b82525050565b6000602082019050818103600083015261032881846102a3565b905092915050565b60006020820190508181036000830152610349816102dc565b9050919050565b600060208201905061036560008301846102ff565b92915050565b600081519050919050565b600082825260208201905092915050565b6000610392826103dd565b915061039d836103dd565b9250827fffffffffffffffffffffffffffffffffffffffffffffffffffffffffffffffff038211156103d2576103d161041a565b5b828201905092915050565b6000819050919050565b60005b838110156104055780820151818401526020810190506103ea565b83811115610414576000848401525b50505050565b7f4e487b7100000000000000000000000000000000000000000000000000000000600052601160045260246000fd5b6000601f19601f8301169050919050565b7f7573657220616c7265616479206578697374000000000000000000000000000060008201525056fea2646970667358221220de23ef6c6d34ce8f2f6a4339361597bc91f9ae1e69dfc861937b45e5ffdaf40564736f6c63430008040033",
  "linkReferences": {},
  "deployedLinkReferences": {}
}